:100000000C94A6000C94CE000C94CE000C94CE0060
:100010000C94CE000C94CE000C94CE000C94CE0028
:100020000C94CE000C94CE000C94CE000C94CE0018
:100030000C94CE000C94CE000C94CE000C94CE0008
:100040000C949B060C94CE000C94A1020C94EF022D
:100050000C94CE000C94CE000C94CE000C94CE00E8
:100060000C94CE000C94CE0007634236B79BD8A701
:100070001A39685618AEBAAB558C1D3CB7CC5763CD
:10008000BD6DEDFD753EF6177231BF000000803F7B
:1000900008000000BE922449123EABAAAA2ABECD97
:1000A000CCCC4C3E00000080BEABAAAAAA3E000009
:1000B0000000BF000000803F000000000008417801
:1000C000D3BB4387D1133D190E3CC3BD4282AD2B38
:1000D0003E68EC8276BED98FE1A93E4C80EFFFBE30
:1000E00001C4FF7F3F00000000000000000024006A
:1000F00027002A0000000000250028002B00000037
:10010000000023002600290004040404040404045D
:1001100002020202020203030303030301020408B2
:100120001020408001020408102001020408102061
:1001300000000007000201000003040600000000A8
:10014000000000004D025B04BD04460211241FBEE6
:10015000CFEFD8E0DEBFCDBF11E0A0E0B1E0E2E933
:10016000F8E102C005900D92A432B107D9F712E070
:10017000A4E2B1E001C01D92A631B107E1F711E0A0
:10018000CAE4D1E004C02297FE010E94380CC434B6
:10019000D107C9F70E940E050C943C0C0C9400008A
:1001A000FC018AE091E09183808316820895FC012E
:1001B0008AE091E091838083089521E0FC01268309
:1001C0000895EF92FF920F931F939B01BA011416AB
:1001D00015061CF5F90120E030E0EE24FF2487012C
:1001E00081919191A191B191E80EF91E0A1F1B1FF7
:1001F0002F5F3F4F261737079CF39B01442737FD9E
:100200004095542FC801B7010E94140CCA01B901CE
:100210001F910F91FF90EF900895EE24FF24870126
:10022000ECCFCF93DF93EC019B01E0912401F0919F
:100230002501EA30F1050CF1E6E2F1E084819581D7
:10024000A681B78181939193A193B19381E0EA3420
:10025000F807A1F74083518322833383CE01BF0186
:10026000645270404AE050E00E94E100AB019C0102
:10027000BA01C901DF91CF9108953196F09325011C
:10028000E0932401EE0FFF1FEE0FFF1FEA5DFE4F0C
:100290004083518362833383BA01C901DF91CF91D7
:1002A00008956F927F928F929F92AF92BF92CF925A
:1002B000DF92EF92FF920F931F93AA2797FDA095CD
:1002C000BA2FBC01CD010E949F0920E03CE742E922
:1002D00058E40E9404093B014C0120E030E040E476
:1002E00050E40E948E0A5B016C01C401B301A401B9
:1002F00093010E942B0A7B018C01C601B5012DECF4
:100300003CEC4CE85FE30E942B0A5B016C01C801E6
:10031000B70123E333E343E750EC0E942B0A9B0130
:10032000AC01C601B5010E94A0087B018C01C4018B
:10033000B30120E030E042E054E40E942B0A9B012C
:10034000AC01C801B7010E94A00822E538EB4EE1DC
:100350005FE30E94A0080E946C09CB011F910F91DE
:10036000FF90EF90DF90CF90BF90AF909F908F90D5
:100370007F906F9008956F927F928F929F92AF922D
:10038000BF92CF92DF92EF92FF920F931F93CF9382
:10039000DF93EC014B013A010E94E3065B016C0123
:1003A000EE24FF2487010CC08A8160E020E432E45F
:1003B0004FE050E00E946B07E60EF71E081F191F62
:1003C0000E94E3066A197B098C099D0961537547F0
:1003D0008040904048F3C7010E9451019C01F40104
:1003E000918380838E81882391F4F301318320836C
:1003F000DF91CF911F910F91FF90EF90DF90CF9001
:10040000BF90AF909F908F907F906F900895CE0196
:10041000B801A7010E941101DC01CB010E9451012A
:10042000F30191838083E4CFFC01862F6283738381
:1004300060E00E942C070895FC018AE091E091831E
:100440008083CF010E941D0508950F93813091058F
:1004500039F0892B19F46F5F7F4F91F00F91089558
:100460006F5F7F4FD9F785E591E060E040E020E0E5
:1004700000E00E94B1048EE491E00E94D000EECF33
:100480008EE491E00E94D7000F91089580E090E003
:100490006FEF7FEF0E942502089581E090E06FEFFB
:1004A0007FEF0E94250208950F931F93DF93CF9350
:1004B00000D000D0CDB7DEB78EE491E0BE016F5F13
:1004C0007F4FAE014D5F5F4F0E94BB0103EE11E015
:1004D00069817A81C8014AE050E00E945306C80150
:1004E00060E071E00E9485066B817C81C8014AE072
:1004F00050E00E946606C80162E071E00E94880632
:100500000F900F900F900F90CF91DF911F910F914F
:1005100008950F931F9383EE91E040E855E260E069
:1005200070E00E942A030EE411E0C80168E070E068
:100530000E941402C8010E94DD001F910F910895CE
:1005400008951F920F920FB60F9211242F933F938D
:100550004F938F939F93EF93FF938091C00082FD01
:100560001DC04091C60020919B0130919C012F5FDE
:100570003F4F2F73307080919D0190919E012817FD
:10058000390771F0E0919B01F0919C01E55AFE4F13
:10059000408330939C0120939B0102C08091C60050
:1005A000FF91EF919F918F914F913F912F910F90DC
:1005B0000FBE0F901F901895E091EF01F091F001A0
:1005C000E05CFF4F8191919120813181821B930BDF
:1005D0008F739070892B11F00E94A00208951F92D2
:1005E0000F920FB60F9211242F933F938F939F93E7
:1005F000EF93FF932091DF013091E0018091E101C1
:100600009091E2012817390731F48091C1008F7D64
:100610008093C10014C0E091E101F091E201E15644
:10062000FE4F20818091E1019091E20101968F734C
:1006300090709093E2018093E1012093C600FF91B6
:10064000EF919F918F913F912F910F900FBE0F903F
:100650001F901895AF92BF92DF92EF92FF920F9387
:100660001F93CF93DF93EC017A018B01DD2440309F
:1006700081EE580780E0680780E0780711F0DD24FC
:10068000D39491E0A92EB12CEC89FD89DD2069F08D
:10069000C50108A002C0880F991F0A94E2F7808361
:1006A00060E079E08DE390E005C0108260E874E8D6
:1006B0008EE190E0A80197010E94140C2150304077
:1006C00040405040569547953795279580E120301A
:1006D000380720F0DD2011F0DD24D6CFE889F98934
:1006E0003083EA89FB89208319A2EE89FF89408142
:1006F00021E030E0C9010C8C02C0880F991F0A94D8
:10070000E2F7482B4083EE89FF894081C9010D8CB7
:1007100002C0880F991F0A94E2F7482B4083EE89A4
:10072000FF894081C9010E8C02C0880F991F0A946D
:10073000E2F7482B4083EE89FF8980810F8C02C04D
:10074000220F331F0A94E2F7209528232083DF919C
:10075000CF911F910F91FF90EF90DF90BF90AF90DE
:100760000895DC011C96ED91FC911D97E05CFF4F14
:100770002191319180819181281B390B2F73307029
:10078000C9010895DC011C96ED91FC911D97E05C78
:10079000FF4F20813181E054F040DF01AE5BBF4F5D
:1007A0008D919C9111972817390719F42FEF3FEF7E
:1007B00007C08D919C91E80FF91F8081282F30E0B0
:1007C000C9010895DC011C96ED91FC911D97E05C38
:1007D000FF4F20813181E054F040DF01AE5BBF4F1D
:1007E0008D919C9111972817390719F42FEF3FEF3E
:1007F00010C08D919C911197E80FF91F20818D9168
:100800009C91119701968F73907011969C938E9383
:1008100030E0C9010895DC0191968C91919788236D
:1008200039F05496ED91FC915597808186FFF9CF70
:1008300091961C920895CF93DF93EC01EE85FF858E
:10084000E05CFF4F20813181E054F0402F5F3F4F4B
:100850002F733070DF01AE5BBF4F8D919C9111976C
:1008600028173907D1F3E05CFF4F80819181E05474
:10087000F040E80FF91F6083EE85FF85E05CFF4FD5
:1008800031832083EE89FF89208181E090E00F8C05
:1008900002C0880F991F0A94E2F7282B208381E079
:1008A00089A3EC89FD8980818064808381E090E068
:1008B000DF91CF9108951092E6011092E50188EE44
:1008C00093E0A0E0B0E08093E7019093E801A0936B
:1008D000E901B093EA0182E191E09093E401809311
:1008E000E3018BE591E09093F0018093EF018FE9B4
:1008F00091E09093F2018093F10185EC90E0909368
:10090000F4018093F30184EC90E09093F6018093DE
:10091000F50180EC90E09093F8018093F70181EC71
:1009200090E09093FA018093F90182EC90E090932B
:10093000FC018093FB0186EC90E09093FE01809394
:10094000FD0184E08093FF0183E08093000287E053
:100950008093010285E08093020281E0809303028C
:1009600008950F93FC0182E291E09183808362837A
:100970004383248305830F91089582E291E090934D
:10098000060280930502109207021092080210924C
:10099000090210920A0208958F929F92AF92BF921D
:1009A000CF92DF92EF92FF920F931F93CF93DF933B
:1009B0004C016B017C01AA24BB24C0E0D0E0C6013D
:1009C000F70162814AE050E00E9401068C01C601F5
:1009D0006EE20E944A05080F191FA00EB11E219653
:1009E0000894E11CF11CC330D10549F7C601F4019C
:1009F00065814AE050E00E9401069501280F391FE9
:100A0000C901DF91CF911F910F91FF90EF90DF907F
:100A1000CF90BF90AF909F908F900895CF93DF932A
:100A20000E94F1060E948902CCEDD2E00E9454029D
:100A30002097E1F30E94DC02F9CF0E940708089595
:100A4000CF92DF92EF92FF920F931F93CF93DF939A
:100A50007C016B018A01C0E0D0E00FC0D6016D912E
:100A60006D01D701ED91FC910190F081E02DC7015E
:100A70000995C80FD91F015010400115110571F7D4
:100A8000CE01DF91CF911F910F91FF90EF90DF90FA
:100A9000CF900895DC01ED91FC910190F081E02D63
:100AA00009950895EF92FF920F931F938C01DC013B
:100AB000ED91FC910190F081E02D6DE009957C01B4
:100AC000D801ED91FC910190F081E02DC8016AE020
:100AD00009959C012E0D3F1DC9011F910F91FF909B
:100AE000EF900895CF93DF93EC016115710519F430
:100AF00020E030E00FC0DB010D900020E9F71197F6
:100B0000A61BB70BE881F9810280F381E02DAD01CE
:100B100009959C01C901DF91CF9108954F925F9291
:100B20007F928F929F92AF92BF92CF92DF92EF927D
:100B3000FF920F931F93DF93CF93CDB7DEB7A197AB
:100B40000FB6F894DEBF0FBECDBF2C01742ECB01C3
:100B5000223008F42AE019A231E2C32ED12CCC0EA7
:100B6000DD1E822E9924AA24BB24672D752FA50192
:100B700094010E94140C79018A01C801B701A501F2
:100B800094010E94F50B472D461B0894C108D1081B
:100B90004A3014F4405D01C0495CF6014083E11421
:100BA000F1040105110521F07E2C5F2DC801DDCF78
:100BB000C201B6010E947205A1960FB6F894DEBF7D
:100BC0000FBECDBFCF91DF911F910F91FF90EF909E
:100BD000DF90CF90BF90AF909F908F907F905F906D
:100BE0004F900895DC012115310541F4ED91FC9100
:100BF0000190F081E02D642F099508950E948E05E3
:100C00000895EF92FF920F931F939A01E62EFF240F
:100C100000E010E0B801A7010E94F2051F910F91BA
:100C2000FF90EF900895CF92DF92EF92FF920F9393
:100C30001F93CF93DF93EC016A017B0121153105EE
:100C400041F4E881F9810190F081E02D642F09954C
:100C50001FC02A303105D1F477FF17C0E881F98130
:100C60000190F081E02D6DE209958C014427552714
:100C7000BA014C195D096E097F09CE012AE00E9474
:100C80008E059801280F391F04C02AE00E948E05A6
:100C90009C01C901DF91CF911F910F91FF90EF90BF
:100CA000DF90CF900895EF92FF920F931F937B01F7
:100CB0009A010027F7FC0095102FB801A7010E94A8
:100CC00013061F910F91FF90EF900895CF92DF923E
:100CD000EF92FF920F931F936C017B019A01002703
:100CE000F7FC0095102FB801A7010E9413068C0194
:100CF000C6010E945205080F191FC8011F910F91CC
:100D0000FF90EF90DF90CF9008950E9472050895B4
:100D1000EF92FF920F931F937C010E9472058C014A
:100D2000C7010E945205080F191FC8011F910F919A
:100D3000FF90EF9008951F920F920FB60F9211241B
:100D40002F933F938F939F93AF93BF9380910F0205
:100D500090911002A0911102B091120230911302F1
:100D60000196A11DB11D232F2D5F2D3720F02D578A
:100D70000196A11DB11D2093130280930F02909341
:100D80001002A0931102B093120280910B02909175
:100D90000C02A0910D02B0910E020196A11DB11D91
:100DA00080930B0290930C02A0930D02B0930E025D
:100DB000BF91AF919F918F913F912F910F900FBE57
:100DC0000F901F9018958FB7F89420910F023091D3
:100DD000100240911102509112028FBFB901CA0155
:100DE0000895789484B5826084BD84B5816084BDA3
:100DF00085B5826085BD85B5816085BDEEE6F0E094
:100E0000808181608083E1E8F0E0108280818260EF
:100E10008083808181608083E0E8F0E08081816070
:100E20008083E1EBF0E0808184608083E0EBF0E0A0
:100E3000808181608083EAE7F0E080818460808344
:100E400080818260808380818160808380818068EE
:100E500080831092C1000895CF93DF93482F50E014
:100E6000CA01845E9E4FFC013491485F5E4FFA01D7
:100E70008491882369F190E0880F991FFC01E65165
:100E8000FF4FA591B491FC01EC50FF4FC591D49157
:100E9000662351F42FB7F8948C91932F9095892362
:100EA0008C93888189230BC0623061F42FB7F8944A
:100EB0008C91932F909589238C938881832B8883A1
:100EC0002FBF06C09FB7F8948C91832B8C939FBF44
:100ED000DF91CF9108958F929F92AF92BF92CF9260
:100EE000DF92EF92FF920F931F93CF93DF93A82F80
:100EF000B0E0CD01845E9E4FFC018490A85FBE4FA0
:100F0000FD018491662311F4992401C0982C6FEFA0
:100F1000A62E6FEFB62E6FEFC62E6FE0D62EA22252
:100F2000B322C422D522682F70E0660F771F62506B
:100F30007F4FEE24FF248701FB01A591B4910BC0E4
:100F4000EA14FB040C051D0509F44EC00894E11CCD
:100F5000F11C011D111D8C918821891589F30CC08C
:100F6000EA14FB040C051D0509F43EC00894E11CBD
:100F7000F11C011D111D03C0FB01A591B4918C91C1
:100F80008821891569F720E030E040E050E0FB015E
:100F9000C591D4910FC0DA01C9018E0D9F1DA01F0C
:100FA000B11F8A159B05AC05BD05F1F02F5F3F4FC2
:100FB0004F4F5F4F88818821891569F3CA01B901B4
:100FC00025E130E040E050E00E94F50B9B01AC01D0
:100FD000205F3F4F4F4F5F4F84E0569547953795C1
:100FE00027958A95D1F704C020E030E040E050E03A
:100FF000B901CA01DF91CF911F910F91FF90EF903E
:10100000DF90CF90BF90AF909F908F900895CF9337
:10101000DF939C01009709F48FC0EC0122971B829B
:101020001A8260911402709115026115710581F4A4
:1010300088819981820F931F2091040130910501CD
:101040002817390739F5D0930501C093040174C0FE
:10105000DB0140E050E0AC17BD0708F1BB83AA8379
:10106000FE0121913191E20FF31FAE17BF0779F412
:101070008D919C911197280F391F2E5F3F4F398317
:10108000288312968D919C9113979B838A83411597
:10109000510571F4D0931502C09314024DC01296FD
:1010A0008D919C911397AD01009711F0DC01D3CF86
:1010B000DA011396DC93CE931297FA0121913191C4
:1010C000E20FF31FCE17DF0769F488819981280F9B
:1010D000391F2E5F3F4FFA01318320838A819B8124
:1010E00093838283E0E0F0E0DB0112968D919C9186
:1010F0001397009719F0BC01FD01F6CFAB014E5FCD
:101100005F4FDB018D919C91840F951F209104010D
:10111000309105012817390779F4309729F4109296
:1011200015021092140202C01382128242505040E3
:101130005093050140930401DF91CF9108955058D9
:10114000BB27AA270ED04DC13ED130F043D120F0AD
:1011500031F49F3F11F41EF433C10EF4E095E7FB28
:1011600029C1E92F4FD180F3BA17620773078407AB
:10117000950718F071F49EF567C10EF4E0950B2EFB
:10118000BA2FA02D0B01B90190010C01CA01A001D9
:101190001124FF27591B99F0593F50F4503E68F134
:1011A0001A16F040A22F232F342F4427585FF3CF75
:1011B000469537952795A795F0405395C9F77EF446
:1011C0001F16BA0B620B730B840BBAF09150A1F08F
:1011D000FF0FBB1F661F771F881FC2F70EC0BA0F15
:1011E000621F731F841F48F4879577956795B7959D
:1011F000F7959E3F08F0B3CF9395880F08F0992795
:10120000EE0F9795879508950CD0EBC0E3D040F092
:10121000DAD030F021F45F3F19F0CCC0511115C184
:10122000CFC0F0D098F39923C9F35523B1F3951BA0
:10123000550BBB27AA2762177307840738F09F5FF7
:101240005F4F220F331F441FAA1FA9F333D00E2E66
:101250003AF0E0E830D091505040E695001CCAF7D3
:1012600029D0FE2F27D0660F771F881FBB1F261798
:1012700037074807AB07B0E809F0BB0B802DBF016B
:10128000FF2793585F4F2AF09E3F510568F092C0A8
:10129000DCC05F3FECF3983EDCF38695779567956D
:1012A000B795F7959F5FC9F7880F911D969587951C
:1012B00097F90895E1E0660F771F881FBB1F62173B
:1012C00073078407BA0720F0621B730B840BBA0BF9
:1012D000EE1F88F7E095089504D06894B111B5C069
:1012E000089598D088F09F5790F0B92F9927B7515B
:1012F000A0F0D1F0660F771F881F991F1AF0BA95DA
:10130000C9F712C0B13081F09FD0B1E008959CC000
:10131000672F782F8827B85F39F0B93FCCF38695CF
:1013200077956795B395D9F73EF49095809570952C
:1013300061957F4F8F4F9F4F0895E89409C097FBA9
:101340003EF490958095709561957F4F8F4F9F4F9C
:101350009923A9F0F92F96E9BB279395F6958795E0
:1013600077956795B795F111F8CFFAF4BB0F11F4A3
:1013700060FF1BC06F5F7F4F8F4F9F4F16C088234A
:1013800011F096E911C0772321F09EE8872F762F80
:1013900005C0662371F096E8862F70E060E02AF0C1
:1013A0009A95660F771F881FDAF7880F96958795AD
:1013B00097F9089597F99F6780E870E060E00895D5
:1013C0009FEF80EC089500240A941616170618065D
:1013D0000906089500240A94121613061406050639
:1013E0000895092E0394000C11F4882352F0BB0FCA
:1013F00040F4BF2B11F460FF04C06F5F7F4F8F4F2D
:101400009F4F089557FD9058440F551F59F05F3F67
:1014100071F04795880F97FB991F61F09F3F79F016
:1014200087950895121613061406551FF2CF469598
:10143000F1DF08C0161617061806991FF1CF86951A
:101440007105610508940895E894BB2766277727FE
:10145000CB0197F908950BD0C4CFB5DF28F0BADFE0
:1014600018F0952309F0A6CFABCF1124EECFCADF39
:10147000A0F3959FD1F3950F50E0551F629FF001A7
:10148000729FBB27F00DB11D639FAA27F00DB11D00
:10149000AA1F649F6627B00DA11D661F829F222789
:1014A000B00DA11D621F739FB00DA11D621F839F10
:1014B000A00D611D221F749F3327A00D611D231FE6
:1014C000849F600D211D822F762F6A2F11249F5734
:1014D00050408AF0E1F088234AF0EE0FFF1FBB1F57
:1014E000661F771F881F91505040A9F79E3F5105F6
:1014F00070F060CFAACF5F3FECF3983EDCF38695A7
:1015000077956795B795F795E7959F5FC1F7FE2BA0
:10151000880F911D9695879597F90895FA01EE0F1A
:10152000FF1F30962105310599F16115710561F4B0
:101530008038BFE39B0749F168949038810561F0DA
:101540008038BFEF9B0741F0992342F5FF3FE1054B
:101550003105210511F1E8940894E795D901AA23F2
:1015600029F4AB2FBE2FF85FD0F310C0FF5F70F4EB
:10157000A695E0F7F73950F019F0FF3A38F49F7765
:101580009F930CD00F9007FC905808953EF018CF11
:1015900060E070E080E89FE308954FE79F775F93F6
:1015A0004F933F932F939ED02F913F914F915F91F7
:1015B00052DF05C019F40EF0FDCE46CF01CF2ADF71
:1015C000C8F39638C0F707F80F92E8942BE33AEA8D
:1015D00048EB5FE74EDF0F920F920F924DB75EB769
:1015E0000F92C0D0E8E6F0E016D04F915F91EF91F6
:1015F000FF91E595EE1FFF1F49F0FE57E068442775
:10160000EE0F441FFA95E1F74195550B32D00F903C
:1016100007FE26C00895DF93CF931F930F93FF9289
:10162000EF92DF927B018C01689405C0DA2EEF0106
:101630001EDFFE01E894A5912591359145915591C4
:10164000AEF3EF018EDDFE019701A801DA9479F780
:10165000DF90EF90FF900F911F91CF91DF91089550
:101660009B01AC0160E070E080E89FE3CDCDA2CEAD
:10167000ACC0D0DEE8F39923D9F3940F511DBBF32E
:101680009150504094F059F0882332F0660F771F44
:10169000881F91505040C1F79E3F510544F7880F75
:1016A000911D9695879597F908955F3FACF0983E08
:1016B0009CF0BB27869577956795B79508F4B16040
:1016C0009395C1F7BB0F58F711F460FFE8CF6F5F38
:1016D0007F4F8F4F9F4FE3CFB8CE0EF076C070CEC6
:1016E000689468CE97DEC8F39923D1F3C6F3DF93ED
:1016F000CF931F930F93FF92C92FDD2788232AF0E2
:101700002197660F771F881FDAF720E030E040E866
:101710005FEB9FE3883920F0803E30F021968F7791
:101720000FDDE0E9F0E003C00BDDEDEBF0E073DF8F
:101730008B01BE01EC01FB2E6F5771097595771F68
:10174000880B990BFCDD28E132E741E35FE38FDE94
:10175000AF2D9801AE01FF900F911F91CF91DF91B6
:1017600000DD3FCEFA01DC01AA0FBB1F9B01AC01DB
:10177000BF5728F422273327442750781FC0B7517A
:1017800088F4AB2F0024469537952795011CA39527
:10179000D2F3002069F0220F331F441FB395DAF310
:1017A0000DD0CDCC61307105A0E88A07B94630F480
:1017B0009B01AC016627772788279078309621F027
:1017C000208331834283538308959F3F49F0915092
:1017D00028F4869577956795B7959F5F80389F4FDA
:1017E000880F9695879597F90895629FD001739F0A
:1017F000F001829FE00DF11D649FE00DF11D929FAD
:10180000F00D839FF00D749FF00D659FF00D9927EB
:10181000729FB00DE11DF91F639FB00DE11DF91F0F
:10182000BD01CF0111240895A1E21A2EAA1BBB1BF2
:10183000FD010DC0AA1FBB1FEE1FFF1FA217B3079C
:10184000E407F50720F0A21BB30BE40BF50B661FB2
:10185000771F881F991F1A9469F760957095809576
:1018600090959B01AC01BD01CF010895EE0FFF1FC4
:101870000590F491E02D099411E0CAE4D1E004C090
:10188000FE010E94380C2296CC34D107C9F7F89497
:02189000FFCF88
:1018920009002000160200000000D7001C02000010
:1018A20000001B042005B103E203C2030B04000085
:0418B2000000CC0462
:00000001FF
